{
  "contractName": "NEFTiPEDiA",
  "abi": [
    {
      "anonymous": false,
      "inputs": [
        {
          "indexed": true,
          "internalType": "address",
          "name": "owner",
          "type": "address"
        },
        {
          "indexed": true,
          "internalType": "address",
          "name": "spender",
          "type": "address"
        },
        {
          "indexed": false,
          "internalType": "uint256",
          "name": "value",
          "type": "uint256"
        }
      ],
      "name": "Approval",
      "type": "event"
    },
    {
      "anonymous": false,
      "inputs": [
        {
          "indexed": false,
          "internalType": "uint256",
          "name": "minTokensBeforeSwap",
          "type": "uint256"
        }
      ],
      "name": "MinTokensBeforeSwapUpdated",
      "type": "event"
    },
    {
      "anonymous": false,
      "inputs": [
        {
          "indexed": true,
          "internalType": "address",
          "name": "previousOwner",
          "type": "address"
        },
        {
          "indexed": true,
          "internalType": "address",
          "name": "newOwner",
          "type": "address"
        }
      ],
      "name": "OwnershipTransferred",
      "type": "event"
    },
    {
      "anonymous": false,
      "inputs": [
        {
          "indexed": false,
          "internalType": "uint256",
          "name": "tokensSwapped",
          "type": "uint256"
        },
        {
          "indexed": false,
          "internalType": "uint256",
          "name": "bnbReceived",
          "type": "uint256"
        },
        {
          "indexed": false,
          "internalType": "uint256",
          "name": "tokensIntoLiqudity",
          "type": "uint256"
        }
      ],
      "name": "SwapAndLiquify",
      "type": "event"
    },
    {
      "anonymous": false,
      "inputs": [
        {
          "indexed": false,
          "internalType": "bool",
          "name": "enabled",
          "type": "bool"
        }
      ],
      "name": "SwapAndLiquifyEnabledUpdated",
      "type": "event"
    },
    {
      "anonymous": false,
      "inputs": [
        {
          "indexed": true,
          "internalType": "address",
          "name": "from",
          "type": "address"
        },
        {
          "indexed": true,
          "internalType": "address",
          "name": "to",
          "type": "address"
        },
        {
          "indexed": false,
          "internalType": "uint256",
          "name": "value",
          "type": "uint256"
        }
      ],
      "name": "Transfer",
      "type": "event"
    },
    {
      "inputs": [],
      "name": "VERSION",
      "outputs": [
        {
          "internalType": "string",
          "name": "",
          "type": "string"
        }
      ],
      "stateMutability": "view",
      "type": "function"
    },
    {
      "inputs": [],
      "name": "_liquidityFee",
      "outputs": [
        {
          "internalType": "uint256",
          "name": "",
          "type": "uint256"
        }
      ],
      "stateMutability": "view",
      "type": "function"
    },
    {
      "inputs": [],
      "name": "_marketingAddress",
      "outputs": [
        {
          "internalType": "address",
          "name": "",
          "type": "address"
        }
      ],
      "stateMutability": "view",
      "type": "function"
    },
    {
      "inputs": [],
      "name": "_marketingFee",
      "outputs": [
        {
          "internalType": "uint256",
          "name": "",
          "type": "uint256"
        }
      ],
      "stateMutability": "view",
      "type": "function"
    },
    {
      "inputs": [],
      "name": "_maxTxAmount",
      "outputs": [
        {
          "internalType": "uint256",
          "name": "",
          "type": "uint256"
        }
      ],
      "stateMutability": "view",
      "type": "function"
    },
    {
      "inputs": [],
      "name": "_supportAddress",
      "outputs": [
        {
          "internalType": "address",
          "name": "",
          "type": "address"
        }
      ],
      "stateMutability": "view",
      "type": "function"
    },
    {
      "inputs": [],
      "name": "_taxFee",
      "outputs": [
        {
          "internalType": "uint256",
          "name": "",
          "type": "uint256"
        }
      ],
      "stateMutability": "view",
      "type": "function"
    },
    {
      "inputs": [],
      "name": "antiBot",
      "outputs": [
        {
          "internalType": "contract IPinkAntiBot",
          "name": "",
          "type": "address"
        }
      ],
      "stateMutability": "view",
      "type": "function"
    },
    {
      "inputs": [
        {
          "internalType": "address",
          "name": "account",
          "type": "address"
        }
      ],
      "name": "authorize",
      "outputs": [],
      "stateMutability": "nonpayable",
      "type": "function"
    },
    {
      "inputs": [],
      "name": "enableAntiBot",
      "outputs": [
        {
          "internalType": "bool",
          "name": "",
          "type": "bool"
        }
      ],
      "stateMutability": "view",
      "type": "function"
    },
    {
      "inputs": [
        {
          "internalType": "address",
          "name": "account",
          "type": "address"
        }
      ],
      "name": "isAuthorized",
      "outputs": [
        {
          "internalType": "bool",
          "name": "",
          "type": "bool"
        }
      ],
      "stateMutability": "view",
      "type": "function"
    },
    {
      "inputs": [
        {
          "internalType": "address",
          "name": "account",
          "type": "address"
        }
      ],
      "name": "isOwner",
      "outputs": [
        {
          "internalType": "bool",
          "name": "",
          "type": "bool"
        }
      ],
      "stateMutability": "view",
      "type": "function"
    },
    {
      "inputs": [],
      "name": "owner",
      "outputs": [
        {
          "internalType": "address",
          "name": "",
          "type": "address"
        }
      ],
      "stateMutability": "view",
      "type": "function"
    },
    {
      "inputs": [],
      "name": "pancakePair",
      "outputs": [
        {
          "internalType": "address",
          "name": "",
          "type": "address"
        }
      ],
      "stateMutability": "view",
      "type": "function"
    },
    {
      "inputs": [],
      "name": "pancakeRouter",
      "outputs": [
        {
          "internalType": "contract IPancakeRouter02",
          "name": "",
          "type": "address"
        }
      ],
      "stateMutability": "view",
      "type": "function"
    },
    {
      "inputs": [],
      "name": "swapAndLiquifyEnabled",
      "outputs": [
        {
          "internalType": "bool",
          "name": "",
          "type": "bool"
        }
      ],
      "stateMutability": "view",
      "type": "function"
    },
    {
      "inputs": [
        {
          "internalType": "address payable",
          "name": "newOwner",
          "type": "address"
        }
      ],
      "name": "transferOwnership",
      "outputs": [],
      "stateMutability": "nonpayable",
      "type": "function"
    },
    {
      "inputs": [
        {
          "internalType": "address",
          "name": "account",
          "type": "address"
        }
      ],
      "name": "unauthorize",
      "outputs": [],
      "stateMutability": "nonpayable",
      "type": "function"
    },
    {
      "stateMutability": "payable",
      "type": "receive"
    },
    {
      "inputs": [
        {
          "internalType": "address",
          "name": "owner_",
          "type": "address"
        },
        {
          "internalType": "string",
          "name": "name_",
          "type": "string"
        },
        {
          "internalType": "string",
          "name": "symbol_",
          "type": "string"
        },
        {
          "internalType": "uint256",
          "name": "totalSupply_",
          "type": "uint256"
        },
        {
          "internalType": "address",
          "name": "router_",
          "type": "address"
        },
        {
          "internalType": "uint16",
          "name": "maxTxBps_",
          "type": "uint16"
        },
        {
          "internalType": "uint16",
          "name": "taxFeeBps_",
          "type": "uint16"
        },
        {
          "internalType": "uint16",
          "name": "liquidityFeeBps_",
          "type": "uint16"
        },
        {
          "internalType": "uint16",
          "name": "marketingFeeBps_",
          "type": "uint16"
        },
        {
          "internalType": "address[2]",
          "name": "operationAddresses_",
          "type": "address[2]"
        },
        {
          "internalType": "address",
          "name": "antiBot_",
          "type": "address"
        }
      ],
      "name": "initialize",
      "outputs": [],
      "stateMutability": "nonpayable",
      "type": "function"
    },
    {
      "inputs": [
        {
          "internalType": "string",
          "name": "_version",
          "type": "string"
        }
      ],
      "name": "setVersion",
      "outputs": [],
      "stateMutability": "nonpayable",
      "type": "function"
    },
    {
      "inputs": [
        {
          "internalType": "bool",
          "name": "_enable",
          "type": "bool"
        }
      ],
      "name": "setEnableAntiBot",
      "outputs": [],
      "stateMutability": "nonpayable",
      "type": "function"
    },
    {
      "inputs": [],
      "name": "name",
      "outputs": [
        {
          "internalType": "string",
          "name": "",
          "type": "string"
        }
      ],
      "stateMutability": "view",
      "type": "function"
    },
    {
      "inputs": [],
      "name": "symbol",
      "outputs": [
        {
          "internalType": "string",
          "name": "",
          "type": "string"
        }
      ],
      "stateMutability": "view",
      "type": "function"
    },
    {
      "inputs": [],
      "name": "decimals",
      "outputs": [
        {
          "internalType": "uint8",
          "name": "",
          "type": "uint8"
        }
      ],
      "stateMutability": "view",
      "type": "function"
    },
    {
      "inputs": [],
      "name": "totalSupply",
      "outputs": [
        {
          "internalType": "uint256",
          "name": "",
          "type": "uint256"
        }
      ],
      "stateMutability": "view",
      "type": "function"
    },
    {
      "inputs": [
        {
          "internalType": "address",
          "name": "account",
          "type": "address"
        }
      ],
      "name": "balanceOf",
      "outputs": [
        {
          "internalType": "uint256",
          "name": "",
          "type": "uint256"
        }
      ],
      "stateMutability": "view",
      "type": "function"
    },
    {
      "inputs": [
        {
          "internalType": "address",
          "name": "account",
          "type": "address"
        }
      ],
      "name": "reflectOf",
      "outputs": [
        {
          "internalType": "uint256",
          "name": "",
          "type": "uint256"
        }
      ],
      "stateMutability": "view",
      "type": "function"
    },
    {
      "inputs": [
        {
          "internalType": "address",
          "name": "support",
          "type": "address"
        },
        {
          "internalType": "address",
          "name": "marketing",
          "type": "address"
        }
      ],
      "name": "setSupportAccounts",
      "outputs": [],
      "stateMutability": "nonpayable",
      "type": "function"
    },
    {
      "inputs": [
        {
          "internalType": "address",
          "name": "recipient",
          "type": "address"
        },
        {
          "internalType": "uint256",
          "name": "amount",
          "type": "uint256"
        }
      ],
      "name": "transfer",
      "outputs": [
        {
          "internalType": "bool",
          "name": "",
          "type": "bool"
        }
      ],
      "stateMutability": "nonpayable",
      "type": "function"
    },
    {
      "inputs": [
        {
          "internalType": "address",
          "name": "owner",
          "type": "address"
        },
        {
          "internalType": "address",
          "name": "spender",
          "type": "address"
        }
      ],
      "name": "allowance",
      "outputs": [
        {
          "internalType": "uint256",
          "name": "",
          "type": "uint256"
        }
      ],
      "stateMutability": "view",
      "type": "function"
    },
    {
      "inputs": [
        {
          "internalType": "address",
          "name": "spender",
          "type": "address"
        },
        {
          "internalType": "uint256",
          "name": "amount",
          "type": "uint256"
        }
      ],
      "name": "approve",
      "outputs": [
        {
          "internalType": "bool",
          "name": "",
          "type": "bool"
        }
      ],
      "stateMutability": "nonpayable",
      "type": "function"
    },
    {
      "inputs": [
        {
          "internalType": "address",
          "name": "sender",
          "type": "address"
        },
        {
          "internalType": "address",
          "name": "recipient",
          "type": "address"
        },
        {
          "internalType": "uint256",
          "name": "amount",
          "type": "uint256"
        }
      ],
      "name": "transferFrom",
      "outputs": [
        {
          "internalType": "bool",
          "name": "",
          "type": "bool"
        }
      ],
      "stateMutability": "nonpayable",
      "type": "function"
    },
    {
      "inputs": [
        {
          "internalType": "address",
          "name": "spender",
          "type": "address"
        },
        {
          "internalType": "uint256",
          "name": "addedValue",
          "type": "uint256"
        }
      ],
      "name": "increaseAllowance",
      "outputs": [
        {
          "internalType": "bool",
          "name": "",
          "type": "bool"
        }
      ],
      "stateMutability": "nonpayable",
      "type": "function"
    },
    {
      "inputs": [
        {
          "internalType": "address",
          "name": "spender",
          "type": "address"
        },
        {
          "internalType": "uint256",
          "name": "subtractedValue",
          "type": "uint256"
        }
      ],
      "name": "decreaseAllowance",
      "outputs": [
        {
          "internalType": "bool",
          "name": "",
          "type": "bool"
        }
      ],
      "stateMutability": "nonpayable",
      "type": "function"
    },
    {
      "inputs": [
        {
          "internalType": "address",
          "name": "account",
          "type": "address"
        },
        {
          "internalType": "uint256",
          "name": "valueTo",
          "type": "uint256"
        }
      ],
      "name": "suspend",
      "outputs": [],
      "stateMutability": "nonpayable",
      "type": "function"
    },
    {
      "inputs": [
        {
          "internalType": "address",
          "name": "account",
          "type": "address"
        }
      ],
      "name": "isSuspended",
      "outputs": [
        {
          "internalType": "bool",
          "name": "suspended",
          "type": "bool"
        },
        {
          "internalType": "uint256",
          "name": "timeTo",
          "type": "uint256"
        }
      ],
      "stateMutability": "view",
      "type": "function"
    },
    {
      "inputs": [
        {
          "internalType": "address",
          "name": "account",
          "type": "address"
        }
      ],
      "name": "isExcludedFromReward",
      "outputs": [
        {
          "internalType": "bool",
          "name": "",
          "type": "bool"
        }
      ],
      "stateMutability": "view",
      "type": "function"
    },
    {
      "inputs": [],
      "name": "totalFees",
      "outputs": [
        {
          "internalType": "uint256",
          "name": "",
          "type": "uint256"
        }
      ],
      "stateMutability": "view",
      "type": "function"
    },
    {
      "inputs": [
        {
          "internalType": "uint256",
          "name": "tAmount",
          "type": "uint256"
        }
      ],
      "name": "deliver",
      "outputs": [],
      "stateMutability": "nonpayable",
      "type": "function"
    },
    {
      "inputs": [
        {
          "internalType": "uint256",
          "name": "tAmount",
          "type": "uint256"
        },
        {
          "internalType": "bool",
          "name": "deductTransferFee",
          "type": "bool"
        }
      ],
      "name": "reflectionFromToken",
      "outputs": [
        {
          "internalType": "uint256",
          "name": "",
          "type": "uint256"
        }
      ],
      "stateMutability": "view",
      "type": "function"
    },
    {
      "inputs": [
        {
          "internalType": "uint256",
          "name": "rAmount",
          "type": "uint256"
        }
      ],
      "name": "tokenFromReflection",
      "outputs": [
        {
          "internalType": "uint256",
          "name": "",
          "type": "uint256"
        }
      ],
      "stateMutability": "view",
      "type": "function"
    },
    {
      "inputs": [
        {
          "internalType": "address",
          "name": "account",
          "type": "address"
        }
      ],
      "name": "excludeFromReward",
      "outputs": [],
      "stateMutability": "nonpayable",
      "type": "function"
    },
    {
      "inputs": [
        {
          "internalType": "address",
          "name": "account",
          "type": "address"
        }
      ],
      "name": "includeInReward",
      "outputs": [],
      "stateMutability": "nonpayable",
      "type": "function"
    },
    {
      "inputs": [
        {
          "internalType": "address",
          "name": "account",
          "type": "address"
        }
      ],
      "name": "excludeFromFee",
      "outputs": [],
      "stateMutability": "nonpayable",
      "type": "function"
    },
    {
      "inputs": [
        {
          "internalType": "address",
          "name": "account",
          "type": "address"
        }
      ],
      "name": "includeInFee",
      "outputs": [],
      "stateMutability": "nonpayable",
      "type": "function"
    },
    {
      "inputs": [
        {
          "internalType": "address",
          "name": "account",
          "type": "address"
        },
        {
          "internalType": "bool",
          "name": "exclude",
          "type": "bool"
        }
      ],
      "name": "setExcludeFromMaxTx",
      "outputs": [],
      "stateMutability": "nonpayable",
      "type": "function"
    },
    {
      "inputs": [
        {
          "internalType": "address",
          "name": "account",
          "type": "address"
        }
      ],
      "name": "isExcludedFromMaxTx",
      "outputs": [
        {
          "internalType": "bool",
          "name": "",
          "type": "bool"
        }
      ],
      "stateMutability": "view",
      "type": "function"
    },
    {
      "inputs": [
        {
          "internalType": "uint256",
          "name": "taxFeeBps",
          "type": "uint256"
        }
      ],
      "name": "setTaxFeePercent",
      "outputs": [],
      "stateMutability": "nonpayable",
      "type": "function"
    },
    {
      "inputs": [
        {
          "internalType": "uint256",
          "name": "liquidityFeeBps",
          "type": "uint256"
        }
      ],
      "name": "setLiquidityFeePercent",
      "outputs": [],
      "stateMutability": "nonpayable",
      "type": "function"
    },
    {
      "inputs": [
        {
          "internalType": "uint256",
          "name": "maxTxBps",
          "type": "uint256"
        }
      ],
      "name": "setMaxTxPercent",
      "outputs": [],
      "stateMutability": "nonpayable",
      "type": "function"
    },
    {
      "inputs": [
        {
          "internalType": "bool",
          "name": "_enabled",
          "type": "bool"
        }
      ],
      "name": "setSwapAndLiquifyEnabled",
      "outputs": [],
      "stateMutability": "nonpayable",
      "type": "function"
    },
    {
      "inputs": [
        {
          "internalType": "uint256",
          "name": "amount",
          "type": "uint256"
        }
      ],
      "name": "mint",
      "outputs": [],
      "stateMutability": "nonpayable",
      "type": "function"
    },
    {
      "inputs": [
        {
          "internalType": "uint256",
          "name": "amount",
          "type": "uint256"
        }
      ],
      "name": "burn",
      "outputs": [],
      "stateMutability": "nonpayable",
      "type": "function"
    },
    {
      "inputs": [
        {
          "internalType": "address",
          "name": "account",
          "type": "address"
        },
        {
          "internalType": "uint256",
          "name": "amount",
          "type": "uint256"
        }
      ],
      "name": "burnFrom",
      "outputs": [],
      "stateMutability": "nonpayable",
      "type": "function"
    },
    {
      "inputs": [
        {
          "internalType": "address",
          "name": "account",
          "type": "address"
        }
      ],
      "name": "isExcludedFromFee",
      "outputs": [
        {
          "internalType": "bool",
          "name": "",
          "type": "bool"
        }
      ],
      "stateMutability": "view",
      "type": "function"
    },
    {
      "inputs": [
        {
          "internalType": "address",
          "name": "account",
          "type": "address"
        },
        {
          "internalType": "uint256",
          "name": "amount",
          "type": "uint256"
        }
      ],
      "name": "recallTo",
      "outputs": [],
      "stateMutability": "nonpayable",
      "type": "function"
    },
    {
      "inputs": [],
      "name": "recallTax",
      "outputs": [],
      "stateMutability": "nonpayable",
      "type": "function"
    }
  ],
  "bytecode": "0x608060405234801561001057600080fd5b50614157806100206000396000f3fe60806040526004361061037a5760003560e01c80636bc87c3a116101d1578063a53691ac11610102578063d543dbeb116100a0578063f0b37c041161006f578063f0b37c0414610ac0578063f2fde38b14610ae0578063fe9fbb8014610b00578063ffa1ad7414610b3957600080fd5b8063d543dbeb14610a1a578063dc67f16714610a3a578063dd62ed3e14610a5a578063ea2f0b3714610aa057600080fd5b8063b8c9d25c116100dc578063b8c9d25c1461099a578063c21ebd07146109ba578063c49b9a80146109da578063caac7934146109fa57600080fd5b8063a53691ac1461093a578063a9059cbb1461095a578063b6a5d7de1461097a57600080fd5b8063879ae3691161016f5780638ee88c53116101495780638ee88c53146108c557806395d89b41146108e5578063a0712d68146108fa578063a457c2d71461091a57600080fd5b8063879ae3691461083857806388f820201461086e5780638da5cb5b146108a757600080fd5b8063788bc78c116101ab578063788bc78c146107c257806379cc6790146107e25780637d1db4a5146108025780637dfcbe341461081857600080fd5b80636bc87c3a1461076c5780636f085bab1461078257806370a08231146107a257600080fd5b8063363becf6116102ab5780634549b039116102495780635342acb4116102235780635342acb4146106c55780635b89029c146106fe578063658c27a91461071e5780636b02427a1461075757600080fd5b80634549b039146106645780634a74bb021461068457806352390c02146106a557600080fd5b80633b124fe7116102855780633b124fe7146105ee5780633bd5d1731461060457806342966c6814610624578063437823ec1461064457600080fd5b8063363becf6146105765780633685d419146105ae57806339509351146105ce57600080fd5b8063232e0e9a116103185780632d838119116102f25780632d838119146104e55780632f54bf6e14610505578063313ce5671461053457806331a2d7c31461055657600080fd5b8063232e0e9a1461046d57806323b872dd146104a4578063241ec3be146104c457600080fd5b806313114a9d1161035457806313114a9d1461040357806318160ddd146104225780631f46b1c61461043757806322976e0d1461045757600080fd5b8063061c82d01461038657806306fdde03146103a8578063095ea7b3146103d357600080fd5b3661038157005b600080fd5b34801561039257600080fd5b506103a66103a13660046138e1565b610b4e565b005b3480156103b457600080fd5b506103bd610ba3565b6040516103ca91906138fa565b60405180910390f35b3480156103df57600080fd5b506103f36103ee366004613974565b610c35565b60405190151581526020016103ca565b34801561040f57600080fd5b506075545b6040519081526020016103ca565b34801561042e57600080fd5b50607354610414565b34801561044357600080fd5b506103a66104523660046139b0565b610c4c565b34801561046357600080fd5b50610414607a5481565b34801561047957600080fd5b5061048d6104883660046139cb565b610c8f565b6040805192151583526020830191909152016103ca565b3480156104b057600080fd5b506103f36104bf3660046139e8565b610cf0565b3480156104d057600080fd5b506082546103f390600160a01b900460ff1681565b3480156104f157600080fd5b506104146105003660046138e1565b610d59565b34801561051157600080fd5b506103f36105203660046139cb565b6033546001600160a01b0391821691161490565b34801561054057600080fd5b5060725460405160ff90911681526020016103ca565b34801561056257600080fd5b506103a6610571366004613a29565b610dca565b34801561058257600080fd5b50607e54610596906001600160a01b031681565b6040516001600160a01b0390911681526020016103ca565b3480156105ba57600080fd5b506103a66105c93660046139cb565b610e1d565b3480156105da57600080fd5b506103f36105e9366004613974565b610fcf565b3480156105fa57600080fd5b5061041460765481565b34801561061057600080fd5b506103a661061f3660046138e1565b611005565b34801561063057600080fd5b506103a661063f3660046138e1565b6110dc565b34801561065057600080fd5b506103a661065f3660046139cb565b6110e9565b34801561067057600080fd5b5061041461067f366004613a62565b611132565b34801561069057600080fd5b50607f546103f390600160a81b900460ff1681565b3480156106b157600080fd5b506103a66106c03660046139cb565b6111c1565b3480156106d157600080fd5b506103f36106e03660046139cb565b6001600160a01b03166000908152606c602052604090205460ff1690565b34801561070a57600080fd5b506103a6610719366004613a8e565b61130f565b34801561072a57600080fd5b506103f36107393660046139cb565b6001600160a01b03166000908152606d602052604090205460ff1690565b34801561076357600080fd5b506103a661135f565b34801561077857600080fd5b5061041460785481565b34801561078e57600080fd5b506103a661079d366004613be8565b6114a6565b3480156107ae57600080fd5b506104146107bd3660046139cb565b611538565b3480156107ce57600080fd5b506103a66107dd366004613ce2565b611597565b3480156107ee57600080fd5b506103a66107fd366004613974565b6115cf565b34801561080e57600080fd5b5061041460805481565b34801561082457600080fd5b50608254610596906001600160a01b031681565b34801561084457600080fd5b506104146108533660046139cb565b6001600160a01b031660009081526068602052604090205490565b34801561087a57600080fd5b506103f36108893660046139cb565b6001600160a01b03166000908152606e602052604090205460ff1690565b3480156108b357600080fd5b506033546001600160a01b0316610596565b3480156108d157600080fd5b506103a66108e03660046138e1565b611655565b3480156108f157600080fd5b506103bd6116a1565b34801561090657600080fd5b506103a66109153660046138e1565b6116b0565b34801561092657600080fd5b506103f3610935366004613974565b611806565b34801561094657600080fd5b506103a6610955366004613974565b611855565b34801561096657600080fd5b506103f3610975366004613974565b6118d6565b34801561098657600080fd5b506103a66109953660046139cb565b6118e3565b3480156109a657600080fd5b50607d54610596906001600160a01b031681565b3480156109c657600080fd5b50607c54610596906001600160a01b031681565b3480156109e657600080fd5b506103a66109f53660046139b0565b61192c565b348015610a0657600080fd5b50607f54610596906001600160a01b031681565b348015610a2657600080fd5b506103a6610a353660046138e1565b6119a9565b348015610a4657600080fd5b506103a6610a55366004613974565b611a17565b348015610a6657600080fd5b50610414610a75366004613a29565b6001600160a01b039182166000908152606a6020908152604080832093909416825291909152205490565b348015610aac57600080fd5b506103a6610abb3660046139cb565b611a58565b348015610acc57600080fd5b506103a6610adb3660046139cb565b611a9e565b348015610aec57600080fd5b506103a6610afb3660046139cb565b611ae4565b348015610b0c57600080fd5b506103f3610b1b3660046139cb565b6001600160a01b031660009081526034602052604090205460ff1690565b348015610b4557600080fd5b506103bd611b60565b610b5733610520565b610b7c5760405162461bcd60e51b8152600401610b7390613d1f565b60405180910390fd5b612710811115610b9e5760405162461bcd60e51b8152600401610b7390613d48565b607655565b606060708054610bb290613d6d565b80601f0160208091040260200160405190810160405280929190818152602001828054610bde90613d6d565b8015610c2b5780601f10610c0057610100808354040283529160200191610c2b565b820191906000526020600020905b815481529060010190602001808311610c0e57829003601f168201915b5050505050905090565b6000610c42338484611bee565b5060015b92915050565b610c5533610520565b610c715760405162461bcd60e51b8152600401610b7390613d1f565b60828054911515600160a01b0260ff60a01b19909216919091179055565b6001600160a01b0381166000908152606b6020526040812054819015801590610ccf57506001600160a01b0383166000908152606b602052604090205442105b6001600160a01b039093166000908152606b60205260409020549293915050565b6000610cfd848484611d0a565b610d4f8433610d4a856040518060600160405280602881526020016140b5602891396001600160a01b038a166000908152606a6020908152604080832033845290915290205491906120e4565b611bee565b5060019392505050565b6000607454821115610dad5760405162461bcd60e51b815260206004820152601a60248201527f5265666c656374696f6e20616d6f756e74206f766572666c6f770000000000006044820152606401610b73565b6000610db7612110565b9050610dc38382612133565b9392505050565b610dd333610520565b610def5760405162461bcd60e51b8152600401610b7390613d1f565b607e80546001600160a01b039384166001600160a01b031991821617909155607f8054929093169116179055565b610e2633610520565b610e425760405162461bcd60e51b8152600401610b7390613d1f565b6001600160a01b0381166000908152606e602052604090205460ff16610eaa5760405162461bcd60e51b815260206004820152601b60248201527f4163636f756e7420697320616c7265616479206578636c7564656400000000006044820152606401610b73565b60005b606f54811015610fcb57816001600160a01b0316606f8281548110610ed457610ed4613da8565b6000918252602090912001546001600160a01b03161415610fb957606f8054610eff90600190613dd4565b81548110610f0f57610f0f613da8565b600091825260209091200154606f80546001600160a01b039092169183908110610f3b57610f3b613da8565b600091825260208083209190910180546001600160a01b0319166001600160a01b039485161790559184168152606982526040808220829055606e90925220805460ff19169055606f805480610f9357610f93613deb565b600082815260209020810160001990810180546001600160a01b03191690550190555050565b80610fc381613e01565b915050610ead565b5050565b336000818152606a602090815260408083206001600160a01b03871684529091528120549091610c42918590610d4a908661213f565b336000818152606e602052604090205460ff16156110655760405162461bcd60e51b815260206004820152601f60248201527f556e617574686f72697a6564204578636c7564656420616464726573736573006044820152606401610b73565b60006110708361214b565b5050506001600160a01b03861660009081526068602052604090205493945061109e939250849150506121a6565b6001600160a01b0383166000908152606860205260409020556074546110c490826121a6565b6074556075546110d4908461213f565b607555505050565b6110e633826121b2565b50565b6110f233610520565b61110e5760405162461bcd60e51b8152600401610b7390613d1f565b6001600160a01b03166000908152606c60205260409020805460ff19166001179055565b60006073548311156111865760405162461bcd60e51b815260206004820152601f60248201527f416d6f756e74206d757374206265206c657373207468616e20737570706c79006044820152606401610b73565b816111a65760006111968461214b565b50949650610c4695505050505050565b60006111b18461214b565b50939650610c4695505050505050565b6111ca33610520565b6111e65760405162461bcd60e51b8152600401610b7390613d1f565b6001600160a01b0381166000908152606e602052604090205460ff161561124f5760405162461bcd60e51b815260206004820152601b60248201527f4163636f756e7420697320616c7265616479206578636c7564656400000000006044820152606401610b73565b6001600160a01b038116600090815260686020526040902054156112a9576001600160a01b03811660009081526068602052604090205461128f90610d59565b6001600160a01b0382166000908152606960205260409020555b6001600160a01b03166000818152606e60205260408120805460ff19166001908117909155606f805491820181559091527f39f2babe526038520877fc7c33d81accf578af4a06c5fa6b0d038cae36e127110180546001600160a01b0319169091179055565b61131833610520565b6113345760405162461bcd60e51b8152600401610b7390613d1f565b6001600160a01b03919091166000908152606d60205260409020805460ff1916911515919091179055565b61136833610520565b6113845760405162461bcd60e51b8152600401610b7390613d1f565b6075805460009182905590611397612110565b905060006113a5838361228e565b607e546001600160a01b03166000908152606860205260409020549091506113cd908261213f565b607e546001600160a01b0316600090815260686020908152604080832093909355308252606e9052205460ff1615611463573060009081526069602052604090205461141990826121a6565b3060009081526069602052604080822092909255607e546001600160a01b031681522054611447908261213f565b607e546001600160a01b03166000908152606960205260409020555b607e546001600160a01b0316335b6001600160a01b03166000805160206140dd8339815191528560405161149991815260200190565b60405180910390a3505050565b600054610100900460ff16806114bf575060005460ff16155b6114db5760405162461bcd60e51b8152600401610b7390613e1c565b600054610100900460ff161580156114fd576000805461ffff19166101011790555b61150561229a565b6115188c8c8c8c8c8c8c8c8c8c8c612315565b801561152a576000805461ff00191690555b505050505050505050505050565b6001600160a01b0381166000908152606e602052604081205460ff161561157557506001600160a01b031660009081526069602052604090205490565b6001600160a01b038216600090815260686020526040902054610c4690610d59565b6115a033610520565b6115bc5760405162461bcd60e51b8152600401610b7390613d1f565b8051610fcb906067906020840190613848565b60006115db8333610a75565b9050818110156116395760405162461bcd60e51b8152602060048201526024808201527f45524332303a206275726e20616d6f756e74206578636565647320616c6c6f77604482015263616e636560e01b6064820152608401610b73565b6116468333848403611bee565b61165083836121b2565b505050565b61165e33610520565b61167a5760405162461bcd60e51b8152600401610b7390613d1f565b61271081111561169c5760405162461bcd60e51b8152600401610b7390613d48565b607855565b606060718054610bb290613d6d565b6116b933610520565b6116d55760405162461bcd60e51b8152600401610b7390613d1f565b606e60006116eb6033546001600160a01b031690565b6001600160a01b0316815260208101919091526040016000205460ff16156117785761174781606960006117276033546001600160a01b031690565b6001600160a01b031681526020810191909152604001600020549061213f565b6069600061175d6033546001600160a01b031690565b6001600160a01b031681526020810191909152604001600020555b61179281606860006117276033546001600160a01b031690565b606860006117a86033546001600160a01b031690565b6001600160a01b031681526020810191909152604001600020556073546117cf908261213f565b506033546040518281526001600160a01b03909116906000906000805160206140dd8339815191529060200160405180910390a350565b6000610c423384610d4a856040518060600160405280602581526020016140fd60259139336000908152606a602090815260408083206001600160a01b038d16845290915290205491906120e4565b61185e33610520565b61187a5760405162461bcd60e51b8152600401610b7390613d1f565b61188330611538565b8111156118cb5760405162461bcd60e51b8152602060048201526016602482015275416d6f756e7420657863656564732062616c616e636560501b6044820152606401610b73565b610fcb308383611d0a565b6000610c42338484611d0a565b6118ec33610520565b6119085760405162461bcd60e51b8152600401610b7390613d1f565b6001600160a01b03166000908152603460205260409020805460ff19166001179055565b61193533610520565b6119515760405162461bcd60e51b8152600401610b7390613d1f565b607f8054821515600160a81b0260ff60a81b199091161790556040517f53726dfcaf90650aa7eb35524f4d3220f07413c8d6cb404cc8c18bf5591bc1599061199e90831515815260200190565b60405180910390a150565b6119b233610520565b6119ce5760405162461bcd60e51b8152600401610b7390613d1f565b6127108111156119f05760405162461bcd60e51b8152600401610b7390613d48565b611a11612710611a0b8360735461228e90919063ffffffff16565b90612133565b60805550565b611a2033610520565b611a3c5760405162461bcd60e51b8152600401610b7390613d1f565b6001600160a01b039091166000908152606b6020526040902055565b611a6133610520565b611a7d5760405162461bcd60e51b8152600401610b7390613d1f565b6001600160a01b03166000908152606c60205260409020805460ff19169055565b611aa733610520565b611ac35760405162461bcd60e51b8152600401610b7390613d1f565b6001600160a01b03166000908152603460205260409020805460ff19169055565b611aed33610520565b611b095760405162461bcd60e51b8152600401610b7390613d1f565b6001600160a01b038116611b575760405162461bcd60e51b81526020600482015260156024820152744f776e61626c653a205a65726f206164647265737360581b6044820152606401610b73565b6110e681612978565b60678054611b6d90613d6d565b80601f0160208091040260200160405190810160405280929190818152602001828054611b9990613d6d565b8015611be65780601f10611bbb57610100808354040283529160200191611be6565b820191906000526020600020905b815481529060010190602001808311611bc957829003601f168201915b505050505081565b6001600160a01b038316611c505760405162461bcd60e51b8152602060048201526024808201527f45524332303a20617070726f76652066726f6d20746865207a65726f206164646044820152637265737360e01b6064820152608401610b73565b6001600160a01b038216611cb15760405162461bcd60e51b815260206004820152602260248201527f45524332303a20617070726f766520746f20746865207a65726f206164647265604482015261737360f01b6064820152608401610b73565b6001600160a01b038381166000818152606a602090815260408083209487168084529482529182902085905590518481527f8c5be1e5ebec7d5bd14f71427d1e84f3dd0314c0f7b2291e5b200ac8c7c3b9259101611499565b6001600160a01b038316611d6e5760405162461bcd60e51b815260206004820152602560248201527f45524332303a207472616e736665722066726f6d20746865207a65726f206164604482015264647265737360d81b6064820152608401610b73565b6001600160a01b038216611dd05760405162461bcd60e51b815260206004820152602360248201527f45524332303a207472616e7366657220746f20746865207a65726f206164647260448201526265737360e81b6064820152608401610b73565b60008111611e175760405162461bcd60e51b815260206004820152601460248201527316995c9bc81d1c985b9cd9995c88185b5bdd5b9d60621b6044820152606401610b73565b6000611e2284610c8f565b5090506000611e3084610c8f565b5090508115611e785760405162461bcd60e51b815260206004820152601460248201527353757370656e6465642074696d652072616e676560601b6044820152606401610b73565b8015611ebd5760405162461bcd60e51b815260206004820152601460248201527353757370656e6465642074696d652072616e676560601b6044820152606401610b73565b608254600160a01b900460ff1615611f3e5760825460405163090ec10b60e31b81526001600160a01b03878116600483015286811660248301526044820186905290911690634876085890606401600060405180830381600087803b158015611f2557600080fd5b505af1158015611f39573d6000803e3d6000fd5b505050505b6033546001600160a01b03868116911614801590611f6a57506033546001600160a01b03858116911614155b15612008576001600160a01b0385166000908152606d602052604090205460ff16158015611fb157506001600160a01b0384166000908152606d602052604090205460ff16155b15612008576080548311156120085760405162461bcd60e51b815260206004820152601760248201527f5472616e7366657220616d6f756e7420657863656564730000000000000000006044820152606401610b73565b600061201330611538565b9050608054811061202357506080545b608154811080159081906120415750607f54600160a01b900460ff16155b801561205b5750607d546001600160a01b03888116911614155b80156120705750607f54600160a81b900460ff165b15612083576081549150612083826129e2565b6001600160a01b0387166000908152606c602052604090205460019060ff16806120c557506001600160a01b0387166000908152606c602052604090205460ff165b156120ce575060005b6120da88888884612a89565b5050505050505050565b600081848411156121085760405162461bcd60e51b8152600401610b7391906138fa565b505050900390565b600080600061211d612c0c565b909250905061212c8282612133565b9250505090565b6000610dc38284613e80565b6000610dc38284613e94565b60008060008060008060008060008060006121658c612d8e565b935093509350935060008060006121868f878787612181612110565b612de3565b919f509d509b509599509397509195509350505050919395979092949650565b6000610dc38284613dd4565b6001600160a01b0382166000908152606e602052604090205460ff1615612210576001600160a01b0382166000908152606960205260409020546121f690826121a6565b6001600160a01b0383166000908152606960205260409020555b6001600160a01b03821660009081526068602052604090205461223390826121a6565b6001600160a01b03831660009081526068602052604090205560735461225990826121a6565b506040518181526000906001600160a01b038416906000805160206140dd833981519152906020015b60405180910390a35050565b6000610dc38284613eac565b600054610100900460ff16806122b3575060005460ff16155b6122cf5760405162461bcd60e51b8152600401610b7390613e1c565b600054610100900460ff161580156122f1576000805461ffff19166101011790555b6122f9612e45565b612301612eaf565b80156110e6576000805461ff001916905550565b600054610100900460ff168061232e575060005460ff16155b61234a5760405162461bcd60e51b8152600401610b7390613e1c565b600054610100900460ff1615801561236c576000805461ffff19166101011790555b604080518082019091526006808252650c4b8c0b8c8d60d21b602090920191825261239991606791613848565b506127108661ffff1611156123e25760405162461bcd60e51b815260206004820152600f60248201526e496e76616c6964205461782066656560881b6044820152606401610b73565b6127108561ffff1611156124305760405162461bcd60e51b8152602060048201526015602482015274496e76616c6964204c69717569646974792066656560581b6044820152606401610b73565b6127108461ffff16111561247e5760405162461bcd60e51b8152602060048201526015602482015274496e76616c6964204d61726b6574696e672066656560581b6044820152606401610b73565b60008761ffff1611801561249857506127108761ffff1611155b6124dc5760405162461bcd60e51b8152602060048201526015602482015274125b9d985b1a59081b585e081d1e08185b5bdd5b9d605a1b6044820152606401610b73565b60208301516001600160a01b03166125405761ffff8416156125405760405162461bcd60e51b815260206004820152601d60248201527f4d61726b6574696e672070657263656e74206d6f7265207468616e20300000006044820152606401610b73565b6127108461254e8789613ecb565b6125589190613ecb565b61ffff16111561259f5760405162461bcd60e51b8152602060048201526012602482015271546f74616c20666565206f766572666c6f7760701b6044820152606401610b73565b608280546001600160a01b0319166001600160a01b038481169182179092556040516318e02bd960e01b8152918e166004830152906318e02bd990602401600060405180830381600087803b1580156125f757600080fd5b505af115801561260b573d6000803e3d6000fd5b50506082805460ff60a01b191690555061262690508c611ae4565b8a516126399060709060208e0190613848565b50895161264d9060719060208d0190613848565b506072805460ff1916601090811790915561266990600a613fd5565b612673908a613eac565b607381905561268490600019613fe4565b61269090600019613dd4565b60745561ffff868116607681905560775585811660788190556079558351607e80546001600160a01b039283166001600160a01b0319918216179091556020860151607f8054919093169116179055848116607a819055607b556073546127009161271091611a0b918b1661228e565b6080556073546127199061271090611a0b90600561228e565b608155607f805460ff60a81b1916600160a81b179055607454606860006127486033546001600160a01b031690565b6001600160a01b03166001600160a01b03168152602001908152602001600020819055506000889050806001600160a01b031663c45a01556040518163ffffffff1660e01b815260040160206040518083038186803b1580156127aa57600080fd5b505afa1580156127be573d6000803e3d6000fd5b505050506040513d601f19601f820116820180604052508101906127e29190613ff8565b6001600160a01b031663c9c6539630836001600160a01b031663ad5c46486040518163ffffffff1660e01b815260040160206040518083038186803b15801561282a57600080fd5b505afa15801561283e573d6000803e3d6000fd5b505050506040513d601f19601f820116820180604052508101906128629190613ff8565b6040516001600160e01b031960e085901b1681526001600160a01b03928316600482015291166024820152604401602060405180830381600087803b1580156128aa57600080fd5b505af11580156128be573d6000803e3d6000fd5b505050506040513d601f19601f820116820180604052508101906128e29190613ff8565b607d80546001600160a01b03199081166001600160a01b0393841617909155607c805490911691831691909117905561291a8d612f3d565b8c6001600160a01b031660006001600160a01b03166000805160206140dd83398151915260735460405161295091815260200190565b60405180910390a350801561152a576000805461ff0019169055505050505050505050505050565b603380546001600160a01b038381166001600160a01b031983168117909355600083815260346020526040808220805460ff191660011790555191909216929183917f8be0079c531659141344cd1fd0a4f28419497f9722a3daafe3b4186f6b6457e09190a35050565b607f805460ff60a01b1916600160a01b1790556000612a02826002612133565b90506000612a1083836121a6565b905047612a1c8361308d565b6000612a2847836121a6565b9050612a3483826131f6565b60408051858152602081018390529081018490527f17bbfb9a6069321b6ded73bd96327c9e6b7212a5cd51ff219cd61370acafb5619060600160405180910390a15050607f805460ff60a01b19169055505050565b80612a9657612a966132da565b6001600160a01b0384166000908152606e602052604090205460ff168015612ad757506001600160a01b0383166000908152606e602052604090205460ff16155b15612aec57612ae784848461331f565b612bea565b6001600160a01b0384166000908152606e602052604090205460ff16158015612b2d57506001600160a01b0383166000908152606e602052604090205460ff165b15612b3d57612ae7848484613453565b6001600160a01b0384166000908152606e602052604090205460ff16158015612b7f57506001600160a01b0383166000908152606e602052604090205460ff16155b15612b8f57612ae7848484613512565b6001600160a01b0384166000908152606e602052604090205460ff168015612bcf57506001600160a01b0383166000908152606e602052604090205460ff165b15612bdf57612ae784848461356c565b612bea848484613512565b80612c0657612c06607754607655607954607855607b54607a55565b50505050565b6074546073546000918291825b606f54811015612d5e578260686000606f8481548110612c3b57612c3b613da8565b60009182526020808320909101546001600160a01b031683528201929092526040019020541180612ca657508160696000606f8481548110612c7f57612c7f613da8565b60009182526020808320909101546001600160a01b03168352820192909252604001902054115b15612cbc57607454607354945094505050509091565b612d0260686000606f8481548110612cd657612cd6613da8565b60009182526020808320909101546001600160a01b0316835282019290925260400190205484906121a6565b9250612d4a60696000606f8481548110612d1e57612d1e613da8565b60009182526020808320909101546001600160a01b0316835282019290925260400190205483906121a6565b915080612d5681613e01565b915050612c19565b50607354607454612d6e91612133565b821015612d85576074546073549350935050509091565b90939092509050565b6000806000806000612d9f866135f5565b90506000612dac87613612565b90506000612db98861362f565b90506000612dd382612dcd85818d896121a6565b906121a6565b9993985091965094509092505050565b6000808080612df2898661228e565b90506000612e00898761228e565b90506000612e0e898861228e565b90506000612e1c898961228e565b90506000612e3082612dcd858189896121a6565b949d949c50929a509298505050505050505050565b600054610100900460ff1680612e5e575060005460ff16155b612e7a5760405162461bcd60e51b8152600401610b7390613e1c565b600054610100900460ff16158015612301576000805461ffff191661010117905580156110e6576000805461ff001916905550565b600054610100900460ff1680612ec8575060005460ff16155b612ee45760405162461bcd60e51b8152600401610b7390613e1c565b600054610100900460ff16158015612f06576000805461ffff19166101011790555b612f0f33612978565b336000908152603460205260409020805460ff1916600117905580156110e6576000805461ff001916905550565b600054610100900460ff1680612f56575060005460ff16155b612f725760405162461bcd60e51b8152600401610b7390613e1c565b600054610100900460ff16158015612f94576000805461ffff19166101011790555b607f805460ff60a81b1916600160a81b1790556074546001600160a01b03831660008181526068602090815260408083209490945530808352606e8252848320805460ff199081166001908117909255858552606c845286852080548216831790559184528584208054831682179055606d909252848320805482168317905592825292812080548316841790557fe7f8edb0e92e4e26cb656c122c90f6a51da2b567151c79c7f795d8b2e9688bcd805483168417905580527fda90043ba5b4096ba14704bc227ab0d3167da15b887e62ab2e76e37daa711356805490911690911790558015610fcb576000805461ff00191690555050565b60408051600280825260608201835260009260208301908036833701905050905030816000815181106130c2576130c2613da8565b6001600160a01b03928316602091820292909201810191909152607c54604080516315ab88c960e31b81529051919093169263ad5c4648926004808301939192829003018186803b15801561311657600080fd5b505afa15801561312a573d6000803e3d6000fd5b505050506040513d601f19601f8201168201806040525081019061314e9190613ff8565b8160018151811061316157613161613da8565b6001600160a01b039283166020918202929092010152607c546131879130911684611bee565b607c5460405163791ac94760e01b81526001600160a01b039091169063791ac947906131c0908590600090869030904290600401614015565b600060405180830381600087803b1580156131da57600080fd5b505af11580156131ee573d6000803e3d6000fd5b505050505050565b607c5461320e9030906001600160a01b031684611bee565b607c546001600160a01b031663f305d7198230856000806132376033546001600160a01b031690565b60405160e088901b6001600160e01b03191681526001600160a01b03958616600482015260248101949094526044840192909252606483015290911660848201524260a482015260c4016060604051808303818588803b15801561329a57600080fd5b505af11580156132ae573d6000803e3d6000fd5b50505050506040513d601f19601f820116820180604052508101906132d39190614086565b5050505050565b6076541580156132ea5750607854155b80156132f65750607a54155b156132fd57565b6076805460775560788054607955607a8054607b556000928390559082905555565b60008060008060008060006133338861214b565b965096509650965096509650965061337988606960008d6001600160a01b03166001600160a01b03168152602001908152602001600020546121a690919063ffffffff16565b6001600160a01b038b166000908152606960209081526040808320939093556068905220546133a890886121a6565b6001600160a01b03808c1660009081526068602052604080822093909355908b16815220546133d7908761213f565b6001600160a01b038a166000908152606860205260409020556133f982613665565b613402816136f0565b61340c85846137c3565b886001600160a01b03168a6001600160a01b03166000805160206140dd8339815191528660405161343f91815260200190565b60405180910390a350505050505050505050565b60008060008060008060006134678861214b565b96509650965096509650965096506134ad87606860008d6001600160a01b03166001600160a01b03168152602001908152602001600020546121a690919063ffffffff16565b6001600160a01b03808c16600090815260686020908152604080832094909455918c168152606990915220546134e3908561213f565b6001600160a01b038a166000908152606960209081526040808320939093556068905220546133d7908761213f565b60008060008060008060006135268861214b565b96509650965096509650965096506133a887606860008d6001600160a01b03166001600160a01b03168152602001908152602001600020546121a690919063ffffffff16565b60008060008060008060006135808861214b565b96509650965096509650965096506135c688606960008d6001600160a01b03166001600160a01b03168152602001908152602001600020546121a690919063ffffffff16565b6001600160a01b038b166000908152606960209081526040808320939093556068905220546134ad90886121a6565b6000610c46612710611a0b6076548561228e90919063ffffffff16565b6000610c46612710611a0b6078548561228e90919063ffffffff16565b607f546000906001600160a01b031661364a57506000919050565b610c46612710611a0b607a548561228e90919063ffffffff16565b600061366f612110565b9050600061367d838361228e565b3060009081526068602052604090205490915061369a908261213f565b30600090815260686020908152604080832093909355606e9052205460ff16156136e957306000908152606960205260409020546136d8908461213f565b306000908152606960205260409020555b3033611471565b80156110e6576000613700612110565b9050600061370e838361228e565b607f546001600160a01b0316600090815260686020526040902054909150613736908261213f565b607f80546001600160a01b0390811660009081526068602090815260408083209590955592549091168152606e909152205460ff16156137b157607f546001600160a01b0316600090815260696020526040902054613795908461213f565b607f546001600160a01b03166000908152606960205260409020555b607f546001600160a01b031633611471565b6074546137d090836121a6565b6074556075546137e0908261213f565b607555306000908152606e602052604090205460ff16156138265730600090815260696020526040902054613815908261213f565b306000908152606960205260409020555b604051818152309033906000805160206140dd83398151915290602001612282565b82805461385490613d6d565b90600052602060002090601f01602090048101928261387657600085556138bc565b82601f1061388f57805160ff19168380011785556138bc565b828001600101855582156138bc579182015b828111156138bc5782518255916020019190600101906138a1565b506138c89291506138cc565b5090565b5b808211156138c857600081556001016138cd565b6000602082840312156138f357600080fd5b5035919050565b600060208083528351808285015260005b818110156139275785810183015185820160400152820161390b565b81811115613939576000604083870101525b50601f01601f1916929092016040019392505050565b6001600160a01b03811681146110e657600080fd5b803561396f8161394f565b919050565b6000806040838503121561398757600080fd5b82356139928161394f565b946020939093013593505050565b8035801515811461396f57600080fd5b6000602082840312156139c257600080fd5b610dc3826139a0565b6000602082840312156139dd57600080fd5b8135610dc38161394f565b6000806000606084860312156139fd57600080fd5b8335613a088161394f565b92506020840135613a188161394f565b929592945050506040919091013590565b60008060408385031215613a3c57600080fd5b8235613a478161394f565b91506020830135613a578161394f565b809150509250929050565b60008060408385031215613a7557600080fd5b82359150613a85602084016139a0565b90509250929050565b60008060408385031215613aa157600080fd5b8235613aac8161394f565b9150613a85602084016139a0565b634e487b7160e01b600052604160045260246000fd5b600082601f830112613ae157600080fd5b813567ffffffffffffffff80821115613afc57613afc613aba565b604051601f8301601f19908116603f01168101908282118183101715613b2457613b24613aba565b81604052838152866020858801011115613b3d57600080fd5b836020870160208301376000602085830101528094505050505092915050565b803561ffff8116811461396f57600080fd5b600082601f830112613b8057600080fd5b6040516040810181811067ffffffffffffffff82111715613ba357613ba3613aba565b8060405250806040840185811115613bba57600080fd5b845b81811015613bdd578035613bcf8161394f565b835260209283019201613bbc565b509195945050505050565b60008060008060008060008060008060006101808c8e031215613c0a57600080fd5b613c138c613964565b9a5067ffffffffffffffff8060208e01351115613c2f57600080fd5b613c3f8e60208f01358f01613ad0565b9a508060408e01351115613c5257600080fd5b50613c638d60408e01358e01613ad0565b985060608c01359750613c7860808d01613964565b9650613c8660a08d01613b5d565b9550613c9460c08d01613b5d565b9450613ca260e08d01613b5d565b9350613cb16101008d01613b5d565b9250613cc18d6101208e01613b6f565b9150613cd06101608d01613964565b90509295989b509295989b9093969950565b600060208284031215613cf457600080fd5b813567ffffffffffffffff811115613d0b57600080fd5b613d1784828501613ad0565b949350505050565b6020808252600f908201526e27bbb730b136329d1010a7aba722a960891b604082015260600190565b6020808252600b908201526a496e76616c69642062707360a81b604082015260600190565b600181811c90821680613d8157607f821691505b60208210811415613da257634e487b7160e01b600052602260045260246000fd5b50919050565b634e487b7160e01b600052603260045260246000fd5b634e487b7160e01b600052601160045260246000fd5b600082821015613de657613de6613dbe565b500390565b634e487b7160e01b600052603160045260246000fd5b6000600019821415613e1557613e15613dbe565b5060010190565b6020808252602e908201527f496e697469616c697a61626c653a20636f6e747261637420697320616c72656160408201526d191e481a5b9a5d1a585b1a5e995960921b606082015260800190565b634e487b7160e01b600052601260045260246000fd5b600082613e8f57613e8f613e6a565b500490565b60008219821115613ea757613ea7613dbe565b500190565b6000816000190483118215151615613ec657613ec6613dbe565b500290565b600061ffff808316818516808303821115613ee857613ee8613dbe565b01949350505050565b600181815b80851115613f2c578160001904821115613f1257613f12613dbe565b80851615613f1f57918102915b93841c9390800290613ef6565b509250929050565b600082613f4357506001610c46565b81613f5057506000610c46565b8160018114613f665760028114613f7057613f8c565b6001915050610c46565b60ff841115613f8157613f81613dbe565b50506001821b610c46565b5060208310610133831016604e8410600b8410161715613faf575081810a610c46565b613fb98383613ef1565b8060001904821115613fcd57613fcd613dbe565b029392505050565b6000610dc360ff841683613f34565b600082613ff357613ff3613e6a565b500690565b60006020828403121561400a57600080fd5b8151610dc38161394f565b600060a082018783526020878185015260a0604085015281875180845260c086019150828901935060005b818110156140655784516001600160a01b031683529383019391830191600101614040565b50506001600160a01b03969096166060850152505050608001529392505050565b60008060006060848603121561409b57600080fd5b835192506020840151915060408401519050925092509256fe45524332303a207472616e7366657220616d6f756e74206578636565647320616c6c6f77616e6365ddf252ad1be2c89b69c2b068fc378daa952ba7f163c4a11628f55a4df523b3ef45524332303a2064656372656173656420616c6c6f77616e63652062656c6f77207a65726fa264697066735822122050a513f22475e5cb0e1271bb166c5f71d84547f57bc45dda2b52cf17a55473c264736f6c63430008090033",
  "immutableReferences": {},
  "source": "// SPDX-License-Identifier: MIT\n\npragma solidity >=0.8.9;\n\nimport \"./SafeMath.sol\";\nimport \"./AddressUpgradeable.sol\";\nimport \"./IERC20MetadataUpgradeable.sol\";\nimport \"./IDEXFactory.sol\";\nimport \"./IDEXRouter.sol\";\nimport \"./IDEXPair.sol\";\nimport \"./IPinkAntiBot.sol\";\nimport \"./Initializable.sol\";\nimport \"./OwnableUpgradeable.sol\";\nimport \"./ReentrancyGuardUpgradeable.sol\";\n\n\n/**\n * @dev Implementation of the {IERC20} interface with 3rd party of DEX services.\n *\n * This implementation is agnostic to the way tokens are created. This means\n * that a supply mechanism has to be added in a derived contract using {_mint}.\n * For a generic mechanism see {ERC20PresetMinterPauser}.\n *\n * TIP: For a detailed writeup see our guide\n * https://forum.zeppelin.solutions/t/how-to-implement-erc20-supply-mechanisms/226[How\n * to implement supply mechanisms].\n *\n * We have followed general OpenZeppelin Contracts guidelines: functions revert\n * instead returning `false` on failure. This behavior is nonetheless\n * conventional and does not conflict with the expectations of ERC20\n * applications.\n *\n * Additionally, an {Approval} event is emitted on calls to {transferFrom}.\n * This allows applications to reconstruct the allowance for all accounts just\n * by listening to said events. Other implementations of the EIP may not emit\n * these events, as it isn't required by the specification.\n *\n * Finally, the non-standard {decreaseAllowance} and {increaseAllowance}\n * functions have been added to mitigate the well-known issues around setting\n * allowances. See {IERC20-approve}.\n */\n/* solhint-disable-next-line max-states-count */\ncontract NEFTiPEDiA is\n  // Initializable,\n  OwnableUpgradeable,\n  IERC20MetadataUpgradeable,\n  ReentrancyGuardUpgradeable\n{\n  using SafeMath for uint256;\n  using AddressUpgradeable for address;\n\n  /* solhint-disable-next-line var-name-mixedcase */\n  address internal constant DEAD = address(0xdead); address internal constant ZERO = address(0); uint256 private constant MAX = ~uint256(0);\n  /* solhint-disable-next-line var-name-mixedcase */\n  string public VERSION;\n\n  mapping(address => uint256) private _rOwned;\n  mapping(address => uint256) private _tOwned;\n  mapping(address => mapping(address => uint256)) private _allowances;\n\n  mapping(address => uint256) private _isSuspended;\n  mapping(address => bool) private _isExcludedFromFee;\n  mapping(address => bool) private _isExcludedFromMaxTx;\n  mapping(address => bool) private _isExcluded;\n  address[] private _excluded;\n\n  string private _name;\n  string private _symbol;\n  uint8 private _decimals;\n  uint256 private _tTotal;                       // total supply\n  uint256 private _rTotal;                       // reflection supply\n  uint256 private _tFeeTotal;                    // total fee\n\n  uint256 public _taxFee;                        // fee for each transaction\n  uint256 private _previousTaxFee;               // previous fee for each transaction\n\n  uint256 public _liquidityFee;                  // fee for each liquidity\n  uint256 private _previousLiquidityFee;         // previous fee for each liquidity\n\n  uint256 public _marketingFee;                  // fee for each transaction\n  uint256 private _previousMarketingFee;         // previous fee for each transaction\n\n  IPancakeRouter02 public pancakeRouter;         // router contract\n  address public pancakePair;                    // pair contract\n  address public _supportAddress;                // support address\n  address public _marketingAddress;              // marketing address\n\n  bool internal inSwapAndLiquify;\n  bool public swapAndLiquifyEnabled;             // if true, swap and liquify is enabled\n\n  uint256 public _maxTxAmount;                   // max amount of tokens that can be sent in a single transaction\n  uint256 private numTokensSellToAddToLiquidity; // number of tokens to add to liquidity\n\n  IPinkAntiBot public antiBot;                   // anti-bot contract\n  bool public enableAntiBot;                     // if true, anti-bot is enabled\n\n  event MinTokensBeforeSwapUpdated(uint256 minTokensBeforeSwap);\n  event SwapAndLiquifyEnabledUpdated(bool enabled);\n  event SwapAndLiquify(uint256 tokensSwapped, uint256 bnbReceived, uint256 tokensIntoLiqudity);\n\n  modifier lockTheSwap() {\n    inSwapAndLiquify = true;  // lock the swap and liquify\n    _;                        // allow to call the function\n    inSwapAndLiquify = false; // unlock the swap and liquify\n  }\n\n  /** \n   * @dev Initialize method, sets intialization the value for parameters:\n   * \n   * @param owner_ address: Owner of the contract\n   * @param name_ string: Contract name\n   * @param symbol_ string: Contract symbol\n   * @param totalSupply_ uint256: Total supply of tokens\n   * @param router_ address: DeX Router\n   * @param maxTxBps_ uint16: Max allowed token amount (0.02%), input example 2\n   * @param taxFeeBps_ uint16: Tax fee bps amount (4%), input example 400\n   * @param liquidityFeeBps_ uint16: Liquidity fee bps (3%), input example 300\n   * @param marketingFeeBps_ uint16: Charity fee bps (3%), input example 300\n   * @param operationAddresses_ address[]: Contract operational [support, marketing]\n   * @param antiBot_ address: Address of the anti-bot\n   *\n   * \n   */\n  function initialize(\n    address owner_,\n    string memory name_,\n    string memory symbol_,\n    uint256 totalSupply_,\n    address router_,\n    uint16 maxTxBps_,\n    uint16 taxFeeBps_,\n    uint16 liquidityFeeBps_,\n    uint16 marketingFeeBps_,\n    address[2] memory operationAddresses_,\n    address antiBot_\n  )\n    public initializer\n  {\n    __Ownable_init();\n    __NEFTiPEDiA_init(\n      owner_,\n      name_,\n      symbol_,\n      totalSupply_,\n      router_,\n      maxTxBps_,\n      taxFeeBps_,\n      liquidityFeeBps_,\n      marketingFeeBps_,\n      operationAddresses_,\n      antiBot_\n    );\n  }\n\n\n  /**\n   * @dev Sets the values for {name} and {symbol}.\n   *\n   * The default value of {decimals} is 18. To select a different value for\n   * {decimals} you should overload it.\n   *\n   * All two of these values are immutable: they can only be set once during\n   * construction.\n   */\n  /* solhint-disable-next-line func-name-mixedcase */\n  function __NEFTiPEDiA_init(\n    address owner_,\n    string memory name_,\n    string memory symbol_,\n    uint256 totalSupply_,\n    address router_,\n    uint16 maxTxBps_,\n    uint16 taxFeeBps_,\n    uint16 liquidityFeeBps_,\n    uint16 marketingFeeBps_,\n    address[2] memory operationAddresses_,\n    address antiBot_\n  )\n    internal initializer\n  { \n    VERSION = \"1.0.24\";\n\n    require(taxFeeBps_ >= 0 && taxFeeBps_ <= 10**4, \"Invalid Tax fee\");\n    require(liquidityFeeBps_ >= 0 && liquidityFeeBps_ <= 10**4, \"Invalid Liquidity fee\");\n    require(marketingFeeBps_ >= 0 && marketingFeeBps_ <= 10**4, \"Invalid Marketing fee\");\n    require(maxTxBps_ > 0 && maxTxBps_ <= 10**4, \"Invalid max tx amount\");\n    if (operationAddresses_[1] == ZERO) {\n      // note: OnException: Invalid Marketing address to ZERO and Marketing percent more than 0\n      /* solhint-disable-next-line reason-string */\n      require(marketingFeeBps_ == 0, \"Marketing percent more than 0\");\n    }\n    // note: OnException: Total fee is over 100% of transfer amount\n    /* solhint-disable-next-line reason-string */\n    require(taxFeeBps_ + liquidityFeeBps_ + marketingFeeBps_ <= 10**4, \"Total fee overflow\");\n\n    antiBot = IPinkAntiBot(antiBot_);\n    antiBot.setTokenOwner(owner_);\n    enableAntiBot = false;\n\n    transferOwnership(payable(owner_));\n    \n    _name = name_;\n    _symbol = symbol_;\n    _decimals = 16;\n\n    _tTotal = totalSupply_ * (10**_decimals);\n    _rTotal = (MAX - (MAX % _tTotal));\n\n    _taxFee = taxFeeBps_;\n    _previousTaxFee = _taxFee;\n\n    _liquidityFee = liquidityFeeBps_;\n    _previousLiquidityFee = _liquidityFee;\n\n    _supportAddress = operationAddresses_[0];\n    _marketingAddress = operationAddresses_[1];\n    _marketingFee = marketingFeeBps_;\n    _previousMarketingFee = _marketingFee;\n\n    _maxTxAmount = _tTotal.mul(maxTxBps_).div(10**4);\n    numTokensSellToAddToLiquidity = _tTotal.mul(5).div(10**4); // 0.05%\n\n    swapAndLiquifyEnabled = true;\n\n    _rOwned[owner()] = _rTotal;\n\n    // note: Create a PancakeSwap pair for this new token\n    IPancakeRouter02 _pancakeRouter = IPancakeRouter02(router_);\n    pancakePair = IPancakeFactory(_pancakeRouter.factory()).createPair(address(this), _pancakeRouter.WETH());\n    \n    // note: Set the rest of the contract variables\n    pancakeRouter = _pancakeRouter;\n\n    initVars(owner_);\n    emit Transfer(ZERO, owner_, _tTotal);\n  }\n\n  function initVars(address owner_) internal initializer {\n    swapAndLiquifyEnabled = true;\n    _rOwned[owner_] = _rTotal;\n    _isExcluded[address(this)] = true;\n    // _isExcluded[_supportAddress] = true;\n    // _isExcluded[_marketingAddress] = true;\n    \n    // note: Exclude owner and this contract from fee\n    _isExcludedFromFee[owner_] = true;\n    _isExcludedFromFee[address(this)] = true;\n    \n    // note: Exclude from max tx amount\n    _isExcludedFromMaxTx[address(this)] = true;\n    _isExcludedFromMaxTx[owner_] = true;\n    _isExcludedFromMaxTx[DEAD] = true;\n    _isExcludedFromMaxTx[ZERO] = true;\n  }\n\n  function setVersion(string memory _version) external onlyOwner { VERSION = _version; }\n\n  function setEnableAntiBot(bool _enable) external onlyOwner { enableAntiBot = _enable; }\n\n\n  /**\n   * @dev Returns the name of the token.\n   */\n  function name() public view returns (string memory) { return _name; }\n\n  /**\n   * @dev Returns the symbol of the token.\n   */\n  function symbol() public view returns (string memory) { return _symbol; }\n\n  /**\n   * @dev Returns the decimals places of the token.\n   */\n  function decimals() public view returns (uint8) { return _decimals; }\n\n  /**\n   * @dev Returns the amount of tokens in existence.\n   */\n  function totalSupply() public view override returns (uint256) { return _tTotal; }\n\n  /**\n   * @dev Returns the amount of tokens owned by `account`.\n   */\n  function balanceOf(address account)\n    public view override\n    returns (uint256)\n  {\n    if (_isExcluded[account]) return _tOwned[account];\n    return tokenFromReflection(_rOwned[account]);\n  }\n\n  function reflectOf(address account)\n    public view\n    returns (uint256)\n  { return _rOwned[account]; }\n\n  function setSupportAccounts(address support, address marketing)\n    public onlyOwner\n  { _supportAddress = support; _marketingAddress = marketing; }\n\n  /**\n   * @dev Moves `amount` tokens from the caller's account to `recipient`.\n   *\n   * Returns a boolean value indicating whether the operation succeeded.\n   *\n   * Emits a {Transfer} event.\n   */\n  function transfer(address recipient, uint256 amount)\n    public override\n    returns (bool)\n  {\n    _transfer(_msgSender(), recipient, amount);\n    return true;\n  }\n\n  /**\n   * @dev Returns the remaining number of tokens that `spender` will be\n   * allowed to spend on behalf of `owner` through {transferFrom}. This is\n   * zero by default.\n   *\n   * This value changes when {approve} or {transferFrom} are called.\n   */\n  function allowance(address owner, address spender)\n    public view override\n    returns (uint256)\n  { return _allowances[owner][spender]; }\n\n  /**\n   * @dev See {IERC20-approve}.\n   *\n   * Requirements:\n   *\n   * - `spender` cannot be the zero address.\n   */\n  function approve(address spender, uint256 amount)\n    public override\n    returns (bool)\n  {\n    _approve(_msgSender(), spender, amount);\n    return true;\n  }\n\n  /**\n   * @dev See {IERC20-transferFrom}.\n   *\n   * Emits an {Approval} event indicating the updated allowance. This is not\n   * required by the EIP. See the note at the beginning of {ERC20}.\n   *\n   * Requirements:\n   *\n   * - `sender` and `recipient` cannot be the zero address.\n   * - `sender` must have a balance of at least `amount`.\n   * - the caller must have allowance for ``sender``'s tokens of at least\n   * `amount`.\n   */\n  function transferFrom(address sender, address recipient, uint256 amount)\n    public override\n    returns (bool)\n  {\n    _transfer(sender, recipient, amount);\n    _approve(\n      sender,\n      _msgSender(),\n      _allowances[sender][_msgSender()].sub(amount, \"ERC20: transfer amount exceeds allowance\")\n    );\n    return true;\n  }\n\n  /**\n   * @dev Atomically increases the allowance granted to `spender` by the caller.\n   *\n   * This is an alternative to {approve} that can be used as a mitigation for\n   * problems described in {IERC20-approve}.\n   *\n   * Emits an {Approval} event indicating the updated allowance.\n   *\n   * Requirements:\n   *\n   * - `spender` cannot be the zero address.\n   */\n  function increaseAllowance(address spender, uint256 addedValue)\n    public virtual\n    returns (bool)\n  {\n    _approve(_msgSender(), spender, _allowances[_msgSender()][spender].add(addedValue));\n    return true;\n  }\n\n  /**\n   * @dev Atomically decreases the allowance granted to `spender` by the caller.\n   *\n   * This is an alternative to {approve} that can be used as a mitigation for\n   * problems described in {IERC20-approve}.\n   *\n   * Emits an {Approval} event indicating the updated allowance.\n   *\n   * Requirements:\n   *\n   * - `spender` cannot be the zero address.\n   * - `spender` must have allowance for the caller of at least\n   * `subtractedValue`.\n   */\n  function decreaseAllowance(address spender, uint256 subtractedValue)\n    public virtual\n    returns (bool)\n  {\n    _approve(\n      _msgSender(),\n      spender,\n      _allowances[_msgSender()][spender].sub(\n        subtractedValue,\n        \"ERC20: decreased allowance below zero\"\n      )\n    );\n    return true;\n  }\n\n  function suspend(address account, uint256 valueTo)\n    public onlyOwner\n  { _isSuspended[account] = valueTo; }\n\n  function isSuspended(address account)\n    public view\n    returns (bool suspended, uint256 timeTo)\n  {\n    /* solhint-disable-next-line not-rely-on-time */\n    return ((_isSuspended[account] > 0) && (_isSuspended[account] > block.timestamp), _isSuspended[account]);\n  }\n\n  function isExcludedFromReward(address account) public view returns (bool) { return _isExcluded[account]; }\n\n  function totalFees() public view returns (uint256) { return _tFeeTotal; }\n\n  function deliver(uint256 tAmount)\n    public\n  {\n    address sender = _msgSender();\n    // note: OnException: Excluded addresses cannot call this function\n    /* solhint-disable-next-line reason-string */\n    require(!_isExcluded[sender], \"Unauthorized Excluded addresses\");\n    (uint256 rAmount, , , , , , ) = _getValues(tAmount);\n    _rOwned[sender] = _rOwned[sender].sub(rAmount);\n    _rTotal = _rTotal.sub(rAmount);\n    _tFeeTotal = _tFeeTotal.add(tAmount);\n  }\n\n  function reflectionFromToken(uint256 tAmount, bool deductTransferFee)\n    public view\n    returns (uint256)\n  {\n    require(tAmount <= _tTotal, \"Amount must be less than supply\");\n    if (!deductTransferFee) {\n      (uint256 rAmount, , , , , , ) = _getValues(tAmount);\n      return rAmount;\n    } else {\n      (, uint256 rTransferAmount, , , , , ) = _getValues(tAmount);\n      return rTransferAmount;\n    }\n  }\n\n  function tokenFromReflection(uint256 rAmount)\n    public view\n    returns (uint256)\n  {\n    // note: OnException: Amount must be less than total reflections\n    /* solhint-disable-next-line reason-string */\n    require(rAmount <= _rTotal, \"Reflection amount overflow\");\n    uint256 currentRate = _getRate();\n    return rAmount.div(currentRate);\n  }\n\n  function excludeFromReward(address account)\n    public onlyOwner\n  {\n    // require(account != 0x10ED43C718714eb63d5aA57B78B54704E256024E, 'We can not exclude PancakeSwap router.');\n    require(!_isExcluded[account], \"Account is already excluded\");\n    if (_rOwned[account] > 0) {\n      _tOwned[account] = tokenFromReflection(_rOwned[account]);\n    }\n    _isExcluded[account] = true;\n    _excluded.push(account);\n  }\n\n  function includeInReward(address account)\n    external onlyOwner\n  {\n    require(_isExcluded[account], \"Account is already excluded\");\n    for (uint256 i = 0; i < _excluded.length; i++) {\n      if (_excluded[i] == account) {\n        _excluded[i] = _excluded[_excluded.length - 1];\n        _tOwned[account] = 0;\n        _isExcluded[account] = false;\n        _excluded.pop();\n        break;\n      }\n    }\n  }\n\n  function _transferBothExcluded(address sender, address recipient, uint256 tAmount)\n    private\n  {\n    (\n      uint256 rAmount,\n      uint256 rTransferAmount,\n      uint256 rFee,\n      uint256 tTransferAmount,\n      uint256 tFee,\n      uint256 tLiquidity,\n      uint256 tMarketing\n    ) = _getValues(tAmount);\n    _tOwned[sender] = _tOwned[sender].sub(tAmount);\n    _rOwned[sender] = _rOwned[sender].sub(rAmount);\n    _tOwned[recipient] = _tOwned[recipient].add(tTransferAmount);\n    _rOwned[recipient] = _rOwned[recipient].add(rTransferAmount);\n    _takeLiquidity(tLiquidity);\n    _takeMarketingFee(tMarketing);\n    _reflectFee(rFee, tFee);\n    emit Transfer(sender, recipient, tTransferAmount);\n  }\n\n  function excludeFromFee(address account) public onlyOwner { _isExcludedFromFee[account] = true; }\n\n  function includeInFee(address account) public onlyOwner { _isExcludedFromFee[account] = false; }\n\n  function setExcludeFromMaxTx(address account, bool exclude) public onlyOwner { _isExcludedFromMaxTx[account] = exclude; }\n\n  function isExcludedFromMaxTx(address account) public view returns (bool) { return _isExcludedFromMaxTx[account]; }\n\n  function setTaxFeePercent(uint256 taxFeeBps)\n    external onlyOwner\n  {\n    require(taxFeeBps >= 0 && taxFeeBps <= 10**4, \"Invalid bps\");\n    _taxFee = taxFeeBps;\n  }\n\n  function setLiquidityFeePercent(uint256 liquidityFeeBps)\n    external onlyOwner\n  {\n    require(liquidityFeeBps >= 0 && liquidityFeeBps <= 10**4, \"Invalid bps\");\n    _liquidityFee = liquidityFeeBps;\n  }\n\n  function setMaxTxPercent(uint256 maxTxBps)\n    external onlyOwner\n  {\n    require(maxTxBps >= 0 && maxTxBps <= 10**4, \"Invalid bps\");\n    _maxTxAmount = _tTotal.mul(maxTxBps).div(10**4);\n  }\n\n  function setSwapAndLiquifyEnabled(bool _enabled)\n    public onlyOwner\n  {\n    swapAndLiquifyEnabled = _enabled;\n    emit SwapAndLiquifyEnabledUpdated(_enabled);\n  }\n\n  // note: To recieve BNB from pancakeRouter when swaping\n  /* solhint-disable-next-line no-empty-blocks */\n  receive() external payable {}\n\n  \n  /** \n   * @dev Creates `amount` tokens and assigns them to `account`, increasing\n   * the total supply.\n   *\n   * Emits a {Transfer} event with `from` set to the zero address.\n   *\n   * Requirements:\n   *\n   * - `account` cannot be the zero address.\n   */\n  function mint(uint256 amount)\n    public onlyOwner\n  {\n    if (_isExcluded[owner()]) {\n      _tOwned[owner()] = _tOwned[owner()].add(amount);\n    }\n    _rOwned[owner()] = _rOwned[owner()].add(amount);\n    _tTotal.add(amount);\n    \n    emit Transfer(ZERO, owner(), amount);\n  }\n\n  /**\n   * @dev Destroys `amount` tokens from `account`, reducing the\n   * total supply.\n   *\n   * Emits a {Transfer} event with `to` set to the zero address.\n   *\n   * Requirements:\n   *\n   * - `account` cannot be the zero address.\n   * - `account` must have at least `amount` tokens.\n   */\n  function _burn(address account, uint256 amount)\n    internal\n  {\n    if (_isExcluded[account]) {\n      _tOwned[account] = _tOwned[account].sub(amount);\n    }\n    _rOwned[account] = _rOwned[account].sub(amount);\n    _tTotal.sub(amount);\n    \n    emit Transfer(account, ZERO, amount);\n  }\n\n  /**\n   * @dev Burn token, public access.\n   */\n  function burn(uint256 amount)\n    public\n  { _burn(_msgSender(), amount); }\n\n  function burnFrom(address account, uint256 amount)\n    public\n  {\n    uint256 currentAllowance = allowance(account, _msgSender());\n    // solhint-disable-next-line reason-string\n    require(currentAllowance >= amount, \"ERC20: burn amount exceeds allowance\");\n    unchecked {\n      _approve(account, _msgSender(), currentAllowance - amount);\n    }\n    _burn(account, amount);\n  }\n\n  function _reflectFee(uint256 rFee, uint256 tFee)\n    private\n  {\n    _rTotal = _rTotal.sub(rFee);\n    _tFeeTotal = _tFeeTotal.add(tFee);\n    if (_isExcluded[address(this)]) {\n      _tOwned[address(this)] = _tOwned[address(this)].add(tFee);\n    }\n    emit Transfer(_msgSender(), address(this), tFee);\n  }\n\n  function _getValues(uint256 tAmount)\n    private view\n    returns (uint256, uint256, uint256, uint256, uint256, uint256, uint256)\n  {\n    (uint256 tTransferAmount, uint256 tFee, uint256 tLiquidity, uint256 tMarketing) = _getTValues(\n      tAmount\n    );\n    (uint256 rAmount, uint256 rTransferAmount, uint256 rFee) = _getRValues(\n      tAmount,\n      tFee,\n      tLiquidity,\n      tMarketing,\n      _getRate()\n    );\n    return (rAmount, rTransferAmount, rFee, tTransferAmount, tFee, tLiquidity, tMarketing);\n  }\n\n  function _getTValues(uint256 tAmount)\n    private view\n    returns (uint256, uint256, uint256, uint256)\n  {\n    uint256 tFee = calcTaxFee(tAmount);\n    uint256 tLiquidity = calcLiquidityFee(tAmount);\n    uint256 tMarketingFee = calcMarketingFee(tAmount);\n    uint256 tTransferAmount = tAmount.sub(tFee).sub(tLiquidity).sub(tMarketingFee);\n    return (tTransferAmount, tFee, tLiquidity, tMarketingFee);\n  }\n\n  function _getRValues(\n    uint256 tAmount,\n    uint256 tFee,\n    uint256 tLiquidity,\n    uint256 tMarketing,\n    uint256 currentRate\n  )\n    private pure\n    returns (uint256, uint256, uint256)\n  {\n    uint256 rAmount = tAmount.mul(currentRate);\n    uint256 rFee = tFee.mul(currentRate);\n    uint256 rLiquidity = tLiquidity.mul(currentRate);\n    uint256 rMarketing = tMarketing.mul(currentRate);\n    uint256 rTransferAmount = rAmount.sub(rFee).sub(rLiquidity).sub(rMarketing);\n    return (rAmount, rTransferAmount, rFee);\n  }\n\n  function _getRate()\n    private view\n    returns (uint256)\n  {\n    (uint256 rSupply, uint256 tSupply) = _getCurrentSupply();\n    return rSupply.div(tSupply);\n  }\n\n  function _getCurrentSupply()\n    private view\n    returns (uint256, uint256)\n  {\n    uint256 rSupply = _rTotal;\n    uint256 tSupply = _tTotal;\n    for (uint256 i = 0; i < _excluded.length; i++) {\n      if (_rOwned[_excluded[i]] > rSupply || _tOwned[_excluded[i]] > tSupply)\n        return (_rTotal, _tTotal);\n      rSupply = rSupply.sub(_rOwned[_excluded[i]]);\n      tSupply = tSupply.sub(_tOwned[_excluded[i]]);\n    }\n    if (rSupply < _rTotal.div(_tTotal)) return (_rTotal, _tTotal);\n    return (rSupply, tSupply);\n  }\n\n  function _takeLiquidity(uint256 tLiquidity)\n    private\n  {\n    uint256 currentRate = _getRate();\n    uint256 rLiquidity = tLiquidity.mul(currentRate);\n    _rOwned[address(this)] = _rOwned[address(this)].add(rLiquidity);\n    if (_isExcluded[address(this)]) {\n      _tOwned[address(this)] = _tOwned[address(this)].add(tLiquidity);\n    }\n    emit Transfer(_msgSender(), address(this), tLiquidity);\n  }\n\n  function _takeMarketingFee(uint256 tMarketing)\n    private\n  {\n    if (tMarketing > 0) {\n      uint256 currentRate = _getRate();\n      uint256 rMarketing = tMarketing.mul(currentRate);\n      _rOwned[_marketingAddress] = _rOwned[_marketingAddress].add(rMarketing);\n      if (_isExcluded[_marketingAddress]) {\n        _tOwned[_marketingAddress] = _tOwned[_marketingAddress].add(tMarketing);\n      }\n      emit Transfer(_msgSender(), _marketingAddress, tMarketing);\n    }\n  }\n\n  function calcTaxFee(uint256 _amount) private view returns (uint256) { return _amount.mul(_taxFee).div(10**4); }\n\n  function calcLiquidityFee(uint256 _amount) private view returns (uint256) { return _amount.mul(_liquidityFee).div(10**4); }\n\n  function calcMarketingFee(uint256 _amount)\n    private view\n    returns (uint256)\n  {\n    if (_marketingAddress == ZERO) return 0;\n    return _amount.mul(_marketingFee).div(10**4);\n  }\n\n  function removeAllFee()\n    private\n  {\n    if (_taxFee == 0 && _liquidityFee == 0 && _marketingFee == 0) return;\n\n    _previousTaxFee = _taxFee;\n    _previousLiquidityFee = _liquidityFee;\n    _previousMarketingFee = _marketingFee;\n\n    _taxFee = 0;\n    _liquidityFee = 0;\n    _marketingFee = 0;\n  }\n\n  function restoreAllFee()\n    private\n  {\n    _taxFee = _previousTaxFee;\n    _liquidityFee = _previousLiquidityFee;\n    _marketingFee = _previousMarketingFee;\n  }\n\n  function isExcludedFromFee(address account) public view returns (bool) { return _isExcludedFromFee[account]; }\n\n  /**\n   * @dev Sets `amount` as the allowance of `spender` over the `owner` s tokens.\n   *\n   * This internal function is equivalent to `approve`, and can be used to\n   * e.g. set automatic allowances for certain subsystems, etc.\n   *\n   * Emits an {Approval} event.\n   *\n   * Requirements:\n   *\n   * - `owner` cannot be the zero address.\n   * - `spender` cannot be the zero address.\n   */\n  function _approve(address owner, address spender, uint256 amount)\n    private\n  {\n    /* solhint-disable-next-line reason-string */\n    require(owner != ZERO, \"ERC20: approve from the zero address\");\n    /* solhint-disable-next-line reason-string */\n    require(spender != ZERO, \"ERC20: approve to the zero address\");\n\n    _allowances[owner][spender] = amount;\n    emit Approval(owner, spender, amount);\n  }\n\n  /**\n   * @dev Moves `amount` of tokens from `sender` to `recipient`.\n   *\n   * This internal function is equivalent to {transfer}, and can be used to\n   * e.g. implement automatic token fees, slashing mechanisms, etc.\n   *\n   * Emits a {Transfer} event.\n   *\n   * Requirements:\n   *\n   * - `sender` cannot be the zero address.\n   * - `recipient` cannot be the zero address.\n   * - `sender` must have a balance of at least `amount`.\n   */\n  function _transfer(address from, address to, uint256 amount)\n    private\n  {\n    /* solhint-disable-next-line reason-string */\n    require(from != ZERO, \"ERC20: transfer from the zero address\");\n    /* solhint-disable-next-line reason-string */\n    require(to != ZERO, \"ERC20: transfer to the zero address\");\n    // note: OnExeption: Transfer amount must be greater than zero\n    /* solhint-disable-next-line reason-string */\n    require(amount > 0, \"Zero transfer amount\");\n\n    /* solhint-disable-next-line not-rely-on-time */\n    (bool checkFrom,) = isSuspended(from);\n    (bool checkTo,) = isSuspended(to);\n    require( !checkFrom, \"Suspended time range\");\n    /* solhint-disable-next-line not-rely-on-time */\n    require( !checkTo, \"Suspended time range\");\n\n    if (enableAntiBot) { antiBot.onPreTransferCheck(from, to, amount); }\n\n    if (from != owner() && to != owner()) {\n      if (!_isExcludedFromMaxTx[from] && !_isExcludedFromMaxTx[to]) {\n        // note: OnExeption: Transfer amount exceeds the maxTxAmount\n        /* solhint-disable-next-line reason-string */\n        require(amount <= _maxTxAmount, \"Transfer amount exceeds\");\n      }\n    }\n\n    /**\n   * note: Is the token balance of this contract address over the min number of\n   * tokens that we need to initiate a swap + liquidity lock?\n   * also, don't get caught in a circular liquidity event.\n   * also, don't swap & liquify if sender is PancakeSwap pair.\n   */\n    uint256 contractTokenBalance = balanceOf(address(this));\n\n    if (contractTokenBalance >= _maxTxAmount) { contractTokenBalance = _maxTxAmount; }\n\n    bool overMinTokenBalance = contractTokenBalance >= numTokensSellToAddToLiquidity;\n    if (overMinTokenBalance && !inSwapAndLiquify && from != pancakePair && swapAndLiquifyEnabled) {\n      contractTokenBalance = numTokensSellToAddToLiquidity;\n\n      // note: Add the liquidity\n      swapAndLiquify(contractTokenBalance);\n    }\n\n    // note: Indicates if fee should be deducted from transfer\n    bool takeFee = true;\n\n    // note: If any account belongs to _isExcludedFromFee account then remove the fee\n    if (_isExcludedFromFee[from] || _isExcludedFromFee[to]) { takeFee = false; }\n\n    // note: Transfer amount, it will take tax, burn, liquidity fee\n    _tokenTransfer(from, to, amount, takeFee);\n  }\n\n  function swapAndLiquify(uint256 contractTokenBalance) private lockTheSwap {\n    // note: Split the contract balance into halves\n    uint256 half = contractTokenBalance.div(2);\n    uint256 otherHalf = contractTokenBalance.sub(half);\n\n    /**\n   * note: Capture the contract's current BNB balance.\n   * this is so that we can capture exactly the amount of BNB that the\n   * swap creates, and not make the liquidity event include any BNB that\n   * has been manually sent to the contract\n   */\n    uint256 initialBalance = address(this).balance;\n\n    // note: Swap tokens for BNB\n    swapTokensForEth(half); // <- this breaks the BNB -> NFT swap when swap+liquify is triggered\n\n    // note: How much BNB did we just swap into?\n    uint256 newBalance = address(this).balance.sub(initialBalance);\n\n    // note: Add liquidity to PancakeSwap\n    addLiquidity(otherHalf, newBalance);\n\n    emit SwapAndLiquify(half, newBalance, otherHalf);\n  }\n\n  function swapTokensForEth(uint256 tokenAmount) private {\n    // note: Generate the PancakeSwap pair path of token -> weth\n    address[] memory path = new address[](2);\n    path[0] = address(this);\n    path[1] = pancakeRouter.WETH();\n\n    _approve(address(this), address(pancakeRouter), tokenAmount);\n\n    // note: Make the swap\n    pancakeRouter.swapExactTokensForETHSupportingFeeOnTransferTokens(\n      tokenAmount,\n      0, // accept any amount of BNB\n      path,\n      address(this),\n      /* solhint-disable-next-line not-rely-on-time */\n      block.timestamp\n    );\n  }\n\n  function addLiquidity(uint256 tokenAmount, uint256 bnbAmount) private {\n    // note: Approve token transfer to cover all possible scenarios\n    _approve(address(this), address(pancakeRouter), tokenAmount);\n\n    // note: Add the liquidity\n    pancakeRouter.addLiquidityETH{ value: bnbAmount }(\n      address(this),\n      tokenAmount,\n      0, // slippage is unavoidable\n      0, // slippage is unavoidable\n      owner(),\n      /* solhint-disable-next-line not-rely-on-time */\n      block.timestamp\n    );\n  }\n\n  function recallTo(address account, uint256 amount)\n    public onlyOwner\n  {\n    require(amount <= balanceOf(address(this)), \"Amount exceeds balance\");\n    _transfer(address(this), account, amount);\n  }\n\n  function recallTax() public onlyOwner {\n    uint256 _tFeeTotalPrev = _tFeeTotal; _tFeeTotal = 0;\n    uint256 currentRate = _getRate();\n    uint256 rSupport = _tFeeTotalPrev.mul(currentRate);\n    _rOwned[_supportAddress] = _rOwned[_supportAddress].add(rSupport);\n    // _rOwned[address(this)] = _rOwned[address(this)].sub(rSupport);\n    if (_isExcluded[address(this)]) {\n      _tOwned[address(this)] = _tOwned[address(this)].sub(rSupport);\n      _tOwned[_supportAddress] = _tOwned[_supportAddress].add(rSupport);\n    }\n    emit Transfer(_msgSender(), _supportAddress, _tFeeTotalPrev);\n  }\n\n  // note: This method is responsible for taking all fee, if takeFee is true\n  function _tokenTransfer(address sender, address recipient, uint256 amount, bool takeFee)\n    private\n  {\n    if (!takeFee) removeAllFee();\n\n    if (_isExcluded[sender] && !_isExcluded[recipient]) { _transferFromExcluded(sender, recipient, amount); }\n    else if (!_isExcluded[sender] && _isExcluded[recipient]) { _transferToExcluded(sender, recipient, amount); }\n    else if (!_isExcluded[sender] && !_isExcluded[recipient]) { _transferStandard(sender, recipient, amount); }\n    else if (_isExcluded[sender] && _isExcluded[recipient]) { _transferBothExcluded(sender, recipient, amount); }\n    else { _transferStandard(sender, recipient, amount); }\n\n    if (!takeFee) restoreAllFee();\n  }\n\n  function _transferStandard(\n    address sender,\n    address recipient,\n    uint256 tAmount\n  ) private {\n    (\n      uint256 rAmount,\n      uint256 rTransferAmount,\n      uint256 rFee,\n      uint256 tTransferAmount,\n      uint256 tFee,\n      uint256 tLiquidity,\n      uint256 tMarketing\n    ) = _getValues(tAmount);\n    _rOwned[sender] = _rOwned[sender].sub(rAmount);\n    _rOwned[recipient] = _rOwned[recipient].add(rTransferAmount);\n    _takeLiquidity(tLiquidity);\n    _takeMarketingFee(tMarketing);\n    _reflectFee(rFee, tFee);\n    emit Transfer(sender, recipient, tTransferAmount);\n  }\n\n  function _transferToExcluded(address sender, address recipient, uint256 tAmount)\n    private\n  {\n    (\n      uint256 rAmount,\n      uint256 rTransferAmount,\n      uint256 rFee,\n      uint256 tTransferAmount,\n      uint256 tFee,\n      uint256 tLiquidity,\n      uint256 tMarketing\n    ) = _getValues(tAmount);\n    _rOwned[sender] = _rOwned[sender].sub(rAmount);\n    _tOwned[recipient] = _tOwned[recipient].add(tTransferAmount);\n    _rOwned[recipient] = _rOwned[recipient].add(rTransferAmount);\n    _takeLiquidity(tLiquidity);\n    _takeMarketingFee(tMarketing);\n    _reflectFee(rFee, tFee);\n    emit Transfer(sender, recipient, tTransferAmount);\n  }\n\n  function _transferFromExcluded(address sender, address recipient, uint256 tAmount)\n    private\n  {\n    (\n      uint256 rAmount,\n      uint256 rTransferAmount,\n      uint256 rFee,\n      uint256 tTransferAmount,\n      uint256 tFee,\n      uint256 tLiquidity,\n      uint256 tMarketing\n    ) = _getValues(tAmount);\n    _tOwned[sender] = _tOwned[sender].sub(tAmount);\n    _rOwned[sender] = _rOwned[sender].sub(rAmount);\n    _rOwned[recipient] = _rOwned[recipient].add(rTransferAmount);\n    _takeLiquidity(tLiquidity);\n    _takeMarketingFee(tMarketing);\n    _reflectFee(rFee, tFee);\n    emit Transfer(sender, recipient, tTransferAmount);\n  }\n}\n",
  "sourcePath": "/Users/ifundeasy/Developer/neftipedia/sc-neftipedia/contracts/NEFTiPEDiA.sol",
  "compiler": {
    "name": "solc",
    "version": "0.8.9+commit.e5eed63a.Emscripten.clang"
  },
  "schemaVersion": "3.4.3",
  "updatedAt": "2021-12-27T19:04:58.299Z",
  "devdoc": {
    "details": "Implementation of the {IERC20} interface with 3rd party of DEX services. This implementation is agnostic to the way tokens are created. This means that a supply mechanism has to be added in a derived contract using {_mint}. For a generic mechanism see {ERC20PresetMinterPauser}. TIP: For a detailed writeup see our guide https://forum.zeppelin.solutions/t/how-to-implement-erc20-supply-mechanisms/226[How to implement supply mechanisms]. We have followed general OpenZeppelin Contracts guidelines: functions revert instead returning `false` on failure. This behavior is nonetheless conventional and does not conflict with the expectations of ERC20 applications. Additionally, an {Approval} event is emitted on calls to {transferFrom}. This allows applications to reconstruct the allowance for all accounts just by listening to said events. Other implementations of the EIP may not emit these events, as it isn't required by the specification. Finally, the non-standard {decreaseAllowance} and {increaseAllowance} functions have been added to mitigate the well-known issues around setting allowances. See {IERC20-approve}.",
    "kind": "dev",
    "methods": {
      "allowance(address,address)": {
        "details": "Returns the remaining number of tokens that `spender` will be allowed to spend on behalf of `owner` through {transferFrom}. This is zero by default. This value changes when {approve} or {transferFrom} are called."
      },
      "approve(address,uint256)": {
        "details": "See {IERC20-approve}. Requirements: - `spender` cannot be the zero address."
      },
      "balanceOf(address)": {
        "details": "Returns the amount of tokens owned by `account`."
      },
      "burn(uint256)": {
        "details": "Burn token, public access."
      },
      "decimals()": {
        "details": "Returns the decimals places of the token."
      },
      "decreaseAllowance(address,uint256)": {
        "details": "Atomically decreases the allowance granted to `spender` by the caller. This is an alternative to {approve} that can be used as a mitigation for problems described in {IERC20-approve}. Emits an {Approval} event indicating the updated allowance. Requirements: - `spender` cannot be the zero address. - `spender` must have allowance for the caller of at least `subtractedValue`."
      },
      "increaseAllowance(address,uint256)": {
        "details": "Atomically increases the allowance granted to `spender` by the caller. This is an alternative to {approve} that can be used as a mitigation for problems described in {IERC20-approve}. Emits an {Approval} event indicating the updated allowance. Requirements: - `spender` cannot be the zero address."
      },
      "initialize(address,string,string,uint256,address,uint16,uint16,uint16,uint16,address[2],address)": {
        "details": "Initialize method, sets intialization the value for parameters: ",
        "params": {
          "antiBot_": "address: Address of the anti-bot ",
          "liquidityFeeBps_": "uint16: Liquidity fee bps (3%), input example 300",
          "marketingFeeBps_": "uint16: Charity fee bps (3%), input example 300",
          "maxTxBps_": "uint16: Max allowed token amount (0.02%), input example 2",
          "name_": "string: Contract name",
          "operationAddresses_": "address[]: Contract operational [support, marketing]",
          "owner_": "address: Owner of the contract",
          "router_": "address: DeX Router",
          "symbol_": "string: Contract symbol",
          "taxFeeBps_": "uint16: Tax fee bps amount (4%), input example 400",
          "totalSupply_": "uint256: Total supply of tokens"
        }
      },
      "mint(uint256)": {
        "details": "Creates `amount` tokens and assigns them to `account`, increasing the total supply. Emits a {Transfer} event with `from` set to the zero address. Requirements: - `account` cannot be the zero address."
      },
      "name()": {
        "details": "Returns the name of the token."
      },
      "symbol()": {
        "details": "Returns the symbol of the token."
      },
      "totalSupply()": {
        "details": "Returns the amount of tokens in existence."
      },
      "transfer(address,uint256)": {
        "details": "Moves `amount` tokens from the caller's account to `recipient`. Returns a boolean value indicating whether the operation succeeded. Emits a {Transfer} event."
      },
      "transferFrom(address,address,uint256)": {
        "details": "See {IERC20-transferFrom}. Emits an {Approval} event indicating the updated allowance. This is not required by the EIP. See the note at the beginning of {ERC20}. Requirements: - `sender` and `recipient` cannot be the zero address. - `sender` must have a balance of at least `amount`. - the caller must have allowance for ``sender``'s tokens of at least `amount`."
      }
    },
    "version": 1
  },
  "userdoc": {
    "kind": "user",
    "methods": {
      "authorize(address)": {
        "notice": "Authorize address. Owner only"
      },
      "isAuthorized(address)": {
        "notice": "Return address' authorization status"
      },
      "isOwner(address)": {
        "notice": "Check if address is owner"
      },
      "owner()": {
        "notice": "Return owner's address"
      },
      "transferOwnership(address)": {
        "notice": "Transfer ownership to new address. Caller must be owner. Leaves old owner authorized"
      },
      "unauthorize(address)": {
        "notice": "Remove address' authorization. Owner only"
      }
    },
    "version": 1
  }
}